{
  "_format": "hh-sol-artifact-1",
  "contractName": "NewFacet",
  "sourceName": "src/diamon_test/NewFacet.sol",
  "abi": [
    {
      "inputs": [
        {
          "internalType": "string",
          "name": "name",
          "type": "string"
        }
      ],
      "name": "sayHello",
      "outputs": [
        {
          "internalType": "string",
          "name": "",
          "type": "string"
        }
      ],
      "stateMutability": "pure",
      "type": "function"
    },
    {
      "inputs": [
        {
          "internalType": "string",
          "name": "name",
          "type": "string"
        }
      ],
      "name": "sayHello2",
      "outputs": [
        {
          "internalType": "string",
          "name": "",
          "type": "string"
        }
      ],
      "stateMutability": "pure",
      "type": "function"
    }
  ],
  "bytecode": "0x608060405234801561001057600080fd5b5061030b806100206000396000f3fe608060405234801561001057600080fd5b50600436106100365760003560e01c8063819a34b61461003b578063c3a9b1c51461012d575b600080fd5b6100b26004803603602081101561005157600080fd5b810190808035906020019064010000000081111561006e57600080fd5b82018360208201111561008057600080fd5b803590602001918460018302840111640100000000831117156100a257600080fd5b909192939192939050505061021f565b6040518080602001828103825283818151815260200191508051906020019080838360005b838110156100f25780820151818401526020810190506100d7565b50505050905090810190601f16801561011f5780820380516001836020036101000a031916815260200191505b509250505060405180910390f35b6101a46004803603602081101561014357600080fd5b810190808035906020019064010000000081111561016057600080fd5b82018360208201111561017257600080fd5b8035906020019184600183028401116401000000008311171561019457600080fd5b909192939192939050505061027a565b6040518080602001828103825283818151815260200191508051906020019080838360005b838110156101e45780820151818401526020810190506101c9565b50505050905090810190601f1680156102115780820380516001836020036101000a031916815260200191505b509250505060405180910390f35b6060828260405160200180807f68656c6c6f32203a2000000000000000000000000000000000000000000000008152506009018383808284378083019250505092505050604051602081830303815290604052905092915050565b6060828260405160200180807f68656c6c6f206d6f646966696564203a20000000000000000000000000000000815250601101838380828437808301925050509250505060405160208183030381529060405290509291505056fea26469706673582212204d90c2433239f2083ee1c424c9b411d621e7e2c047d9bdc81b34a5a7f9a009ea64736f6c63430007010033",
  "linkReferences": {},
  "deployedLinkReferences": {}
}