{
  "_format": "hh-sol-artifact-1",
  "contractName": "TestFacet",
  "sourceName": "src/diamon_test/TestFacet.sol",
  "abi": [
    {
      "inputs": [],
      "name": "getNumber",
      "outputs": [
        {
          "internalType": "uint256",
          "name": "",
          "type": "uint256"
        }
      ],
      "stateMutability": "view",
      "type": "function"
    },
    {
      "inputs": [
        {
          "internalType": "uint256",
          "name": "v",
          "type": "uint256"
        }
      ],
      "name": "saveNumber",
      "outputs": [],
      "stateMutability": "nonpayable",
      "type": "function"
    }
  ],
  "bytecode": "0x608060405234801561001057600080fd5b5060c88061001f6000396000f3fe6080604052348015600f57600080fd5b506004361060325760003560e01c8063f2c9ecd8146037578063f33ded7b146053575b600080fd5b603d607e565b6040518082815260200191505060405180910390f35b607c60048036036020811015606757600080fd5b81019080803590602001909291905050506088565b005b6000600154905090565b806001819055505056fea26469706673582212204a9cacb6d0c0a87434843afeffbe129605ac5523ac8571153bae2080517564af64736f6c63430007010033",
  "linkReferences": {},
  "deployedLinkReferences": {}
}