{
  "_format": "hh-sol-artifact-1",
  "contractName": "ALibrary",
  "sourceName": "src/ALibrary.sol",
  "abi": [
    {
      "inputs": [],
      "name": "test",
      "outputs": [],
      "stateMutability": "view",
      "type": "function"
    },
    {
      "inputs": [
        {
          "internalType": "uint256",
          "name": "t",
          "type": "uint256"
        }
      ],
      "name": "twice",
      "outputs": [
        {
          "internalType": "uint256",
          "name": "",
          "type": "uint256"
        }
      ],
      "stateMutability": "pure",
      "type": "function"
    }
  ],
  "bytecode": "0x61023b610026600b82828239805160001a60731461001957fe5b30600052607381538281f3fe73000000000000000000000000000000000000000030146080604052600436106100405760003560e01c80633cf3bbf414610045578063f8a8fd6d14610087575b600080fd5b6100716004803603602081101561005b57600080fd5b8101908080359060200190929190505050610091565b6040518082815260200191505060405180910390f35b61008f61009e565b005b6000600282029050919050565b6100dc6040518060400160405280600581526020017f74657374330000000000000000000000000000000000000000000000000000008152506100de565b565b6101d9816040516024018080602001828103825283818151815260200191508051906020019080838360005b8381101561012557808201518184015260208101905061010a565b50505050905090810190601f1680156101525780820380516001836020036101000a031916815260200191505b50925050506040516020818303038152906040527f41304fac000000000000000000000000000000000000000000000000000000007bffffffffffffffffffffffffffffffffffffffffffffffffffffffff19166020820180517bffffffffffffffffffffffffffffffffffffffffffffffffffffffff83818316178352505050506101dc565b50565b60008151905060006a636f6e736f6c652e6c6f679050602083016000808483855afa505050505056fea2646970667358221220641471772338cd97f0840a766b395f02340faf139b75dc00d061cf056e1b0b1664736f6c63430007010033",
  "linkReferences": {},
  "deployedLinkReferences": {}
}